{
  "address": "0x5FbDB2315678afecb367f032d93F642f64180aa3",
  "abi": [
    {
      "inputs": [],
      "stateMutability": "nonpayable",
      "type": "constructor"
    },
    {
      "inputs": [],
      "name": "NTNFT__CanOnlyMintOnce",
      "type": "error"
    },
    {
      "inputs": [],
      "name": "NTNFT__NftNotTransferrable",
      "type": "error"
    },
    {
      "anonymous": false,
      "inputs": [
        {
          "indexed": true,
          "internalType": "address",
          "name": "owner",
          "type": "address"
        },
        {
          "indexed": true,
          "internalType": "address",
          "name": "approved",
          "type": "address"
        },
        {
          "indexed": true,
          "internalType": "uint256",
          "name": "tokenId",
          "type": "uint256"
        }
      ],
      "name": "Approval",
      "type": "event"
    },
    {
      "anonymous": false,
      "inputs": [
        {
          "indexed": true,
          "internalType": "address",
          "name": "owner",
          "type": "address"
        },
        {
          "indexed": true,
          "internalType": "address",
          "name": "operator",
          "type": "address"
        },
        {
          "indexed": false,
          "internalType": "bool",
          "name": "approved",
          "type": "bool"
        }
      ],
      "name": "ApprovalForAll",
      "type": "event"
    },
    {
      "anonymous": false,
      "inputs": [
        {
          "indexed": true,
          "internalType": "address",
          "name": "from",
          "type": "address"
        },
        {
          "indexed": true,
          "internalType": "address",
          "name": "to",
          "type": "address"
        },
        {
          "indexed": true,
          "internalType": "uint256",
          "name": "tokenId",
          "type": "uint256"
        }
      ],
      "name": "Transfer",
      "type": "event"
    },
    {
      "inputs": [
        {
          "internalType": "address",
          "name": "",
          "type": "address"
        },
        {
          "internalType": "uint256",
          "name": "",
          "type": "uint256"
        }
      ],
      "name": "approve",
      "outputs": [],
      "stateMutability": "pure",
      "type": "function"
    },
    {
      "inputs": [
        {
          "internalType": "address",
          "name": "owner",
          "type": "address"
        }
      ],
      "name": "balanceOf",
      "outputs": [
        {
          "internalType": "uint256",
          "name": "",
          "type": "uint256"
        }
      ],
      "stateMutability": "view",
      "type": "function"
    },
    {
      "inputs": [
        {
          "internalType": "uint256",
          "name": "tokenId",
          "type": "uint256"
        }
      ],
      "name": "burn",
      "outputs": [],
      "stateMutability": "nonpayable",
      "type": "function"
    },
    {
      "inputs": [
        {
          "internalType": "uint256",
          "name": "",
          "type": "uint256"
        }
      ],
      "name": "getApproved",
      "outputs": [
        {
          "internalType": "address",
          "name": "",
          "type": "address"
        }
      ],
      "stateMutability": "pure",
      "type": "function"
    },
    {
      "inputs": [],
      "name": "getTokenCounter",
      "outputs": [
        {
          "internalType": "uint256",
          "name": "",
          "type": "uint256"
        }
      ],
      "stateMutability": "view",
      "type": "function"
    },
    {
      "inputs": [
        {
          "internalType": "address",
          "name": "minter",
          "type": "address"
        }
      ],
      "name": "hasMinted",
      "outputs": [
        {
          "internalType": "bool",
          "name": "",
          "type": "bool"
        }
      ],
      "stateMutability": "view",
      "type": "function"
    },
    {
      "inputs": [
        {
          "internalType": "address",
          "name": "",
          "type": "address"
        },
        {
          "internalType": "address",
          "name": "",
          "type": "address"
        }
      ],
      "name": "isApprovedForAll",
      "outputs": [
        {
          "internalType": "bool",
          "name": "",
          "type": "bool"
        }
      ],
      "stateMutability": "pure",
      "type": "function"
    },
    {
      "inputs": [],
      "name": "mintNft",
      "outputs": [
        {
          "internalType": "uint256",
          "name": "",
          "type": "uint256"
        }
      ],
      "stateMutability": "nonpayable",
      "type": "function"
    },
    {
      "inputs": [],
      "name": "name",
      "outputs": [
        {
          "internalType": "string",
          "name": "",
          "type": "string"
        }
      ],
      "stateMutability": "view",
      "type": "function"
    },
    {
      "inputs": [
        {
          "internalType": "uint256",
          "name": "tokenId",
          "type": "uint256"
        }
      ],
      "name": "ownerOf",
      "outputs": [
        {
          "internalType": "address",
          "name": "",
          "type": "address"
        }
      ],
      "stateMutability": "view",
      "type": "function"
    },
    {
      "inputs": [
        {
          "internalType": "address",
          "name": "",
          "type": "address"
        },
        {
          "internalType": "address",
          "name": "",
          "type": "address"
        },
        {
          "internalType": "uint256",
          "name": "",
          "type": "uint256"
        }
      ],
      "name": "safeTransferFrom",
      "outputs": [],
      "stateMutability": "pure",
      "type": "function"
    },
    {
      "inputs": [
        {
          "internalType": "address",
          "name": "",
          "type": "address"
        },
        {
          "internalType": "address",
          "name": "",
          "type": "address"
        },
        {
          "internalType": "uint256",
          "name": "",
          "type": "uint256"
        },
        {
          "internalType": "bytes",
          "name": "",
          "type": "bytes"
        }
      ],
      "name": "safeTransferFrom",
      "outputs": [],
      "stateMutability": "pure",
      "type": "function"
    },
    {
      "inputs": [
        {
          "internalType": "address",
          "name": "",
          "type": "address"
        },
        {
          "internalType": "bool",
          "name": "",
          "type": "bool"
        }
      ],
      "name": "setApprovalForAll",
      "outputs": [],
      "stateMutability": "pure",
      "type": "function"
    },
    {
      "inputs": [
        {
          "internalType": "bytes4",
          "name": "interfaceId",
          "type": "bytes4"
        }
      ],
      "name": "supportsInterface",
      "outputs": [
        {
          "internalType": "bool",
          "name": "",
          "type": "bool"
        }
      ],
      "stateMutability": "view",
      "type": "function"
    },
    {
      "inputs": [],
      "name": "symbol",
      "outputs": [
        {
          "internalType": "string",
          "name": "",
          "type": "string"
        }
      ],
      "stateMutability": "view",
      "type": "function"
    },
    {
      "inputs": [
        {
          "internalType": "uint256",
          "name": "",
          "type": "uint256"
        }
      ],
      "name": "tokenURI",
      "outputs": [
        {
          "internalType": "string",
          "name": "",
          "type": "string"
        }
      ],
      "stateMutability": "pure",
      "type": "function"
    },
    {
      "inputs": [
        {
          "internalType": "address",
          "name": "",
          "type": "address"
        },
        {
          "internalType": "address",
          "name": "",
          "type": "address"
        },
        {
          "internalType": "uint256",
          "name": "",
          "type": "uint256"
        }
      ],
      "name": "transferFrom",
      "outputs": [],
      "stateMutability": "pure",
      "type": "function"
    }
  ],
  "transactionHash": "0xf1563a3c8a5e839c108fa6074af2c77c076f34dd840b7277049fe1837998e7ad",
  "args": [],
  "numDeployments": 1,
  "solcInputHash": "006f67823402251a2923a00316656955",
  "bytecode": "0x60806040523480156200001157600080fd5b506040518060400160405280600681526020017f4f784175746800000000000000000000000000000000000000000000000000008152506040518060400160405280600281526020017f4f7800000000000000000000000000000000000000000000000000000000000081525081600090816200008f919062000324565b508060019081620000a1919062000324565b5050506200040b565b600081519050919050565b7f4e487b7100000000000000000000000000000000000000000000000000000000600052604160045260246000fd5b7f4e487b7100000000000000000000000000000000000000000000000000000000600052602260045260246000fd5b600060028204905060018216806200012c57607f821691505b602082108103620001425762000141620000e4565b5b50919050565b60008190508160005260206000209050919050565b60006020601f8301049050919050565b600082821b905092915050565b600060088302620001ac7fffffffffffffffffffffffffffffffffffffffffffffffffffffffffffffffff826200016d565b620001b886836200016d565b95508019841693508086168417925050509392505050565b6000819050919050565b6000819050919050565b600062000205620001ff620001f984620001d0565b620001da565b620001d0565b9050919050565b6000819050919050565b6200022183620001e4565b6200023962000230826200020c565b8484546200017a565b825550505050565b600090565b6200025062000241565b6200025d81848462000216565b505050565b5b8181101562000285576200027960008262000246565b60018101905062000263565b5050565b601f821115620002d4576200029e8162000148565b620002a9846200015d565b81016020851015620002b9578190505b620002d1620002c8856200015d565b83018262000262565b50505b505050565b600082821c905092915050565b6000620002f960001984600802620002d9565b1980831691505092915050565b6000620003148383620002e6565b9150826002028217905092915050565b6200032f82620000aa565b67ffffffffffffffff8111156200034b576200034a620000b5565b5b62000357825462000113565b6200036482828562000289565b600060209050601f8311600181146200039c576000841562000387578287015190505b62000393858262000306565b86555062000403565b601f198416620003ac8662000148565b60005b82811015620003d657848901518255600182019150602085019450602081019050620003af565b86831015620003f65784890151620003f2601f891682620002e6565b8355505b6001600288020188555050505b505050505050565b611b77806200041b6000396000f3fe608060405234801561001057600080fd5b506004361061010b5760003560e01c80636352211e116100a2578063a22cb46511610071578063a22cb465146102ca578063b88d4fde146102e6578063c2229fea14610302578063c87b56dd14610320578063e985e9c5146103505761010b565b80636352211e1461022e5780636e02007d1461025e57806370a082311461027c57806395d89b41146102ac5761010b565b806323b872dd116100de57806323b872dd146101aa57806338e21cce146101c657806342842e0e146101f657806342966c68146102125761010b565b806301ffc9a71461011057806306fdde0314610140578063081812fc1461015e578063095ea7b31461018e575b600080fd5b61012a60048036038101906101259190611178565b610380565b60405161013791906111c0565b60405180910390f35b610148610462565b604051610155919061126b565b60405180910390f35b610178600480360381019061017391906112c3565b6104f4565b6040516101859190611331565b60405180910390f35b6101a860048036038101906101a39190611378565b610528565b005b6101c460048036038101906101bf91906113b8565b61055a565b005b6101e060048036038101906101db919061140b565b61058c565b6040516101ed91906111c0565b60405180910390f35b610210600480360381019061020b91906113b8565b6105e2565b005b61022c600480360381019061022791906112c3565b610614565b005b610248600480360381019061024391906112c3565b6106e5565b6040516102559190611331565b60405180910390f35b61026661076b565b6040516102739190611447565b60405180910390f35b6102966004803603810190610291919061140b565b610775565b6040516102a39190611447565b60405180910390f35b6102b461082c565b6040516102c1919061126b565b60405180910390f35b6102e460048036038101906102df919061148e565b6108be565b005b61030060048036038101906102fb9190611603565b6108f0565b005b61030a610922565b6040516103179190611447565b60405180910390f35b61033a600480360381019061033591906112c3565b610a2c565b604051610347919061126b565b60405180910390f35b61036a60048036038101906103659190611686565b610a4e565b60405161037791906111c0565b60405180910390f35b60007f80ac58cd000000000000000000000000000000000000000000000000000000007bffffffffffffffffffffffffffffffffffffffffffffffffffffffff1916827bffffffffffffffffffffffffffffffffffffffffffffffffffffffff1916148061044b57507f5b5e139f000000000000000000000000000000000000000000000000000000007bffffffffffffffffffffffffffffffffffffffffffffffffffffffff1916827bffffffffffffffffffffffffffffffffffffffffffffffffffffffff1916145b8061045b575061045a82610a82565b5b9050919050565b606060008054610471906116f5565b80601f016020809104026020016040519081016040528092919081815260200182805461049d906116f5565b80156104ea5780601f106104bf576101008083540402835291602001916104ea565b820191906000526020600020905b8154815290600101906020018083116104cd57829003601f168201915b5050505050905090565b60006040517fba6925a700000000000000000000000000000000000000000000000000000000815260040160405180910390fd5b6040517fba6925a700000000000000000000000000000000000000000000000000000000815260040160405180910390fd5b6040517fba6925a700000000000000000000000000000000000000000000000000000000815260040160405180910390fd5b6000600760008373ffffffffffffffffffffffffffffffffffffffff1673ffffffffffffffffffffffffffffffffffffffff16815260200190815260200160002060009054906101000a900460ff169050919050565b6040517fba6925a700000000000000000000000000000000000000000000000000000000815260040160405180910390fd5b3373ffffffffffffffffffffffffffffffffffffffff16610634826106e5565b73ffffffffffffffffffffffffffffffffffffffff1614610681576040517fba6925a700000000000000000000000000000000000000000000000000000000815260040160405180910390fd5b6000600760003373ffffffffffffffffffffffffffffffffffffffff1673ffffffffffffffffffffffffffffffffffffffff16815260200190815260200160002060006101000a81548160ff0219169083151502179055506106e281610aec565b50565b6000806106f183610c3a565b9050600073ffffffffffffffffffffffffffffffffffffffff168173ffffffffffffffffffffffffffffffffffffffff1603610762576040517f08c379a000000000000000000000000000000000000000000000000000000000815260040161075990611772565b60405180910390fd5b80915050919050565b6000600654905090565b60008073ffffffffffffffffffffffffffffffffffffffff168273ffffffffffffffffffffffffffffffffffffffff16036107e5576040517f08c379a00000000000000000000000000000000000000000000000000000000081526004016107dc90611804565b60405180910390fd5b600360008373ffffffffffffffffffffffffffffffffffffffff1673ffffffffffffffffffffffffffffffffffffffff168152602001908152602001600020549050919050565b60606001805461083b906116f5565b80601f0160208091040260200160405190810160405280929190818152602001828054610867906116f5565b80156108b45780601f10610889576101008083540402835291602001916108b4565b820191906000526020600020905b81548152906001019060200180831161089757829003601f168201915b5050505050905090565b6040517fba6925a700000000000000000000000000000000000000000000000000000000815260040160405180910390fd5b6040517fba6925a700000000000000000000000000000000000000000000000000000000815260040160405180910390fd5b6000600760003373ffffffffffffffffffffffffffffffffffffffff1673ffffffffffffffffffffffffffffffffffffffff16815260200190815260200160002060009054906101000a900460ff16156109a8576040517f70822e5200000000000000000000000000000000000000000000000000000000815260040160405180910390fd5b6109b433600654610c77565b6001600760003373ffffffffffffffffffffffffffffffffffffffff1673ffffffffffffffffffffffffffffffffffffffff16815260200190815260200160002060006101000a81548160ff02191690831515021790555060066000815480929190610a1f90611853565b9190505550600654905090565b6060604051806080016040528060598152602001611ae9605991399050919050565b60006040517fba6925a700000000000000000000000000000000000000000000000000000000815260040160405180910390fd5b60007f01ffc9a7000000000000000000000000000000000000000000000000000000007bffffffffffffffffffffffffffffffffffffffffffffffffffffffff1916827bffffffffffffffffffffffffffffffffffffffffffffffffffffffff1916149050919050565b6000610af7826106e5565b9050610b07816000846001610c95565b610b10826106e5565b90506004600083815260200190815260200160002060006101000a81549073ffffffffffffffffffffffffffffffffffffffff02191690556001600360008373ffffffffffffffffffffffffffffffffffffffff1673ffffffffffffffffffffffffffffffffffffffff168152602001908152602001600020600082825403925050819055506002600083815260200190815260200160002060006101000a81549073ffffffffffffffffffffffffffffffffffffffff021916905581600073ffffffffffffffffffffffffffffffffffffffff168273ffffffffffffffffffffffffffffffffffffffff167fddf252ad1be2c89b69c2b068fc378daa952ba7f163c4a11628f55a4df523b3ef60405160405180910390a4610c36816000846001610c9b565b5050565b60006002600083815260200190815260200160002060009054906101000a900473ffffffffffffffffffffffffffffffffffffffff169050919050565b610c91828260405180602001604052806000815250610ca1565b5050565b50505050565b50505050565b610cab8383610cfc565b610cb86000848484610f19565b610cf7576040517f08c379a0000000000000000000000000000000000000000000000000000000008152600401610cee9061190d565b60405180910390fd5b505050565b600073ffffffffffffffffffffffffffffffffffffffff168273ffffffffffffffffffffffffffffffffffffffff1603610d6b576040517f08c379a0000000000000000000000000000000000000000000000000000000008152600401610d6290611979565b60405180910390fd5b610d74816110a0565b15610db4576040517f08c379a0000000000000000000000000000000000000000000000000000000008152600401610dab906119e5565b60405180910390fd5b610dc2600083836001610c95565b610dcb816110a0565b15610e0b576040517f08c379a0000000000000000000000000000000000000000000000000000000008152600401610e02906119e5565b60405180910390fd5b6001600360008473ffffffffffffffffffffffffffffffffffffffff1673ffffffffffffffffffffffffffffffffffffffff16815260200190815260200160002060008282540192505081905550816002600083815260200190815260200160002060006101000a81548173ffffffffffffffffffffffffffffffffffffffff021916908373ffffffffffffffffffffffffffffffffffffffff160217905550808273ffffffffffffffffffffffffffffffffffffffff16600073ffffffffffffffffffffffffffffffffffffffff167fddf252ad1be2c89b69c2b068fc378daa952ba7f163c4a11628f55a4df523b3ef60405160405180910390a4610f15600083836001610c9b565b5050565b6000610f3a8473ffffffffffffffffffffffffffffffffffffffff166110e1565b15611093578373ffffffffffffffffffffffffffffffffffffffff1663150b7a02610f63611104565b8786866040518563ffffffff1660e01b8152600401610f859493929190611a5a565b6020604051808303816000875af1925050508015610fc157506040513d601f19601f82011682018060405250810190610fbe9190611abb565b60015b611043573d8060008114610ff1576040519150601f19603f3d011682016040523d82523d6000602084013e610ff6565b606091505b50600081510361103b576040517f08c379a00000000000000000000000000000000000000000000000000000000081526004016110329061190d565b60405180910390fd5b805181602001fd5b63150b7a0260e01b7bffffffffffffffffffffffffffffffffffffffffffffffffffffffff1916817bffffffffffffffffffffffffffffffffffffffffffffffffffffffff191614915050611098565b600190505b949350505050565b60008073ffffffffffffffffffffffffffffffffffffffff166110c283610c3a565b73ffffffffffffffffffffffffffffffffffffffff1614159050919050565b6000808273ffffffffffffffffffffffffffffffffffffffff163b119050919050565b600033905090565b6000604051905090565b600080fd5b600080fd5b60007fffffffff0000000000000000000000000000000000000000000000000000000082169050919050565b61115581611120565b811461116057600080fd5b50565b6000813590506111728161114c565b92915050565b60006020828403121561118e5761118d611116565b5b600061119c84828501611163565b91505092915050565b60008115159050919050565b6111ba816111a5565b82525050565b60006020820190506111d560008301846111b1565b92915050565b600081519050919050565b600082825260208201905092915050565b60005b838110156112155780820151818401526020810190506111fa565b60008484015250505050565b6000601f19601f8301169050919050565b600061123d826111db565b61124781856111e6565b93506112578185602086016111f7565b61126081611221565b840191505092915050565b600060208201905081810360008301526112858184611232565b905092915050565b6000819050919050565b6112a08161128d565b81146112ab57600080fd5b50565b6000813590506112bd81611297565b92915050565b6000602082840312156112d9576112d8611116565b5b60006112e7848285016112ae565b91505092915050565b600073ffffffffffffffffffffffffffffffffffffffff82169050919050565b600061131b826112f0565b9050919050565b61132b81611310565b82525050565b60006020820190506113466000830184611322565b92915050565b61135581611310565b811461136057600080fd5b50565b6000813590506113728161134c565b92915050565b6000806040838503121561138f5761138e611116565b5b600061139d85828601611363565b92505060206113ae858286016112ae565b9150509250929050565b6000806000606084860312156113d1576113d0611116565b5b60006113df86828701611363565b93505060206113f086828701611363565b9250506040611401868287016112ae565b9150509250925092565b60006020828403121561142157611420611116565b5b600061142f84828501611363565b91505092915050565b6114418161128d565b82525050565b600060208201905061145c6000830184611438565b92915050565b61146b816111a5565b811461147657600080fd5b50565b60008135905061148881611462565b92915050565b600080604083850312156114a5576114a4611116565b5b60006114b385828601611363565b92505060206114c485828601611479565b9150509250929050565b600080fd5b600080fd5b7f4e487b7100000000000000000000000000000000000000000000000000000000600052604160045260246000fd5b61151082611221565b810181811067ffffffffffffffff8211171561152f5761152e6114d8565b5b80604052505050565b600061154261110c565b905061154e8282611507565b919050565b600067ffffffffffffffff82111561156e5761156d6114d8565b5b61157782611221565b9050602081019050919050565b82818337600083830152505050565b60006115a66115a184611553565b611538565b9050828152602081018484840111156115c2576115c16114d3565b5b6115cd848285611584565b509392505050565b600082601f8301126115ea576115e96114ce565b5b81356115fa848260208601611593565b91505092915050565b6000806000806080858703121561161d5761161c611116565b5b600061162b87828801611363565b945050602061163c87828801611363565b935050604061164d878288016112ae565b925050606085013567ffffffffffffffff81111561166e5761166d61111b565b5b61167a878288016115d5565b91505092959194509250565b6000806040838503121561169d5761169c611116565b5b60006116ab85828601611363565b92505060206116bc85828601611363565b9150509250929050565b7f4e487b7100000000000000000000000000000000000000000000000000000000600052602260045260246000fd5b6000600282049050600182168061170d57607f821691505b6020821081036117205761171f6116c6565b5b50919050565b7f4552433732313a20696e76616c696420746f6b656e2049440000000000000000600082015250565b600061175c6018836111e6565b915061176782611726565b602082019050919050565b6000602082019050818103600083015261178b8161174f565b9050919050565b7f4552433732313a2061646472657373207a65726f206973206e6f74206120766160008201527f6c6964206f776e65720000000000000000000000000000000000000000000000602082015250565b60006117ee6029836111e6565b91506117f982611792565b604082019050919050565b6000602082019050818103600083015261181d816117e1565b9050919050565b7f4e487b7100000000000000000000000000000000000000000000000000000000600052601160045260246000fd5b600061185e8261128d565b91507fffffffffffffffffffffffffffffffffffffffffffffffffffffffffffffffff82036118905761188f611824565b5b600182019050919050565b7f4552433732313a207472616e7366657220746f206e6f6e20455243373231526560008201527f63656976657220696d706c656d656e7465720000000000000000000000000000602082015250565b60006118f76032836111e6565b91506119028261189b565b604082019050919050565b60006020820190508181036000830152611926816118ea565b9050919050565b7f4552433732313a206d696e7420746f20746865207a65726f2061646472657373600082015250565b60006119636020836111e6565b915061196e8261192d565b602082019050919050565b6000602082019050818103600083015261199281611956565b9050919050565b7f4552433732313a20746f6b656e20616c7265616479206d696e74656400000000600082015250565b60006119cf601c836111e6565b91506119da82611999565b602082019050919050565b600060208201905081810360008301526119fe816119c2565b9050919050565b600081519050919050565b600082825260208201905092915050565b6000611a2c82611a05565b611a368185611a10565b9350611a468185602086016111f7565b611a4f81611221565b840191505092915050565b6000608082019050611a6f6000830187611322565b611a7c6020830186611322565b611a896040830185611438565b8181036060830152611a9b8184611a21565b905095945050505050565b600081519050611ab58161114c565b92915050565b600060208284031215611ad157611ad0611116565b5b6000611adf84828501611aa6565b9150509291505056fe68747470733a2f2f697066732e696f2f697066732f516d63783954395759785532774c756b356270744a5677716a747851504c3853786a67556b6f45614471577a74693f66696c656e616d653d42617369634e46542e706e67a2646970667358221220991f16b26137e1edbe2494885d7bca3b0f729b56c77d5da835d48228587f880464736f6c63430008110033",
  "devdoc": {
    "author": "Spoodermandaleon",
    "kind": "dev",
    "methods": {
      "balanceOf(address)": {
        "details": "See {IERC721-balanceOf}."
      },
      "burn(uint256)": {
        "params": {
          "tokenId": "id of an NFT."
        }
      },
      "name()": {
        "details": "See {IERC721Metadata-name}."
      },
      "ownerOf(uint256)": {
        "details": "See {IERC721-ownerOf}."
      },
      "supportsInterface(bytes4)": {
        "details": "See {IERC165-supportsInterface}."
      },
      "symbol()": {
        "details": "See {IERC721Metadata-symbol}."
      }
    },
    "title": "OxAuth",
    "version": 1
  },
  "userdoc": {
    "kind": "user",
    "methods": {
      "approve(address,uint256)": {
        "notice": "Function disabled as cannot transfer a soulbound nft"
      },
      "burn(uint256)": {
        "notice": "allows an owner of the NFT to burn it."
      },
      "constructor": {
        "notice": "Gives name and symbol to the NFT."
      },
      "getApproved(uint256)": {
        "notice": "Function disabled as cannot transfer a soulbound nft"
      },
      "getTokenCounter()": {
        "notice": "gets the tokenCounter."
      },
      "hasMinted(address)": {
        "notice": "returns whether an address has minted NFT or not"
      },
      "isApprovedForAll(address,address)": {
        "notice": "Function disabled as cannot transfer a soulbound nft"
      },
      "mintNft()": {
        "notice": "allows an address to mint an NFT."
      },
      "safeTransferFrom(address,address,uint256)": {
        "notice": "Function disabled as cannot transfer a soulbound nft"
      },
      "safeTransferFrom(address,address,uint256,bytes)": {
        "notice": "Function disabled as cannot transfer a soulbound nft"
      },
      "setApprovalForAll(address,bool)": {
        "notice": "Function disabled as cannot transfer a soulbound nft"
      },
      "tokenURI(uint256)": {
        "notice": "gets the token URI of an NFT."
      },
      "transferFrom(address,address,uint256)": {
        "notice": "Function disabled as cannot transfer a soulbound nft"
      }
    },
    "notice": "OxAuth provides the functionality to mint soul bound token but only one address could mint once.",
    "version": 1
  },
  "storageLayout": {
    "storage": [
      {
        "astId": 138,
        "contract": "contracts/core/NTNFT.sol:NTNFT",
        "label": "_name",
        "offset": 0,
        "slot": "0",
        "type": "t_string_storage"
      },
      {
        "astId": 140,
        "contract": "contracts/core/NTNFT.sol:NTNFT",
        "label": "_symbol",
        "offset": 0,
        "slot": "1",
        "type": "t_string_storage"
      },
      {
        "astId": 144,
        "contract": "contracts/core/NTNFT.sol:NTNFT",
        "label": "_owners",
        "offset": 0,
        "slot": "2",
        "type": "t_mapping(t_uint256,t_address)"
      },
      {
        "astId": 148,
        "contract": "contracts/core/NTNFT.sol:NTNFT",
        "label": "_balances",
        "offset": 0,
        "slot": "3",
        "type": "t_mapping(t_address,t_uint256)"
      },
      {
        "astId": 152,
        "contract": "contracts/core/NTNFT.sol:NTNFT",
        "label": "_tokenApprovals",
        "offset": 0,
        "slot": "4",
        "type": "t_mapping(t_uint256,t_address)"
      },
      {
        "astId": 158,
        "contract": "contracts/core/NTNFT.sol:NTNFT",
        "label": "_operatorApprovals",
        "offset": 0,
        "slot": "5",
        "type": "t_mapping(t_address,t_mapping(t_address,t_bool))"
      },
      {
        "astId": 3498,
        "contract": "contracts/core/NTNFT.sol:NTNFT",
        "label": "s_tokenCounter",
        "offset": 0,
        "slot": "6",
        "type": "t_uint256"
      },
      {
        "astId": 3503,
        "contract": "contracts/core/NTNFT.sol:NTNFT",
        "label": "_minter",
        "offset": 0,
        "slot": "7",
        "type": "t_mapping(t_address,t_bool)"
      }
    ],
    "types": {
      "t_address": {
        "encoding": "inplace",
        "label": "address",
        "numberOfBytes": "20"
      },
      "t_bool": {
        "encoding": "inplace",
        "label": "bool",
        "numberOfBytes": "1"
      },
      "t_mapping(t_address,t_bool)": {
        "encoding": "mapping",
        "key": "t_address",
        "label": "mapping(address => bool)",
        "numberOfBytes": "32",
        "value": "t_bool"
      },
      "t_mapping(t_address,t_mapping(t_address,t_bool))": {
        "encoding": "mapping",
        "key": "t_address",
        "label": "mapping(address => mapping(address => bool))",
        "numberOfBytes": "32",
        "value": "t_mapping(t_address,t_bool)"
      },
      "t_mapping(t_address,t_uint256)": {
        "encoding": "mapping",
        "key": "t_address",
        "label": "mapping(address => uint256)",
        "numberOfBytes": "32",
        "value": "t_uint256"
      },
      "t_mapping(t_uint256,t_address)": {
        "encoding": "mapping",
        "key": "t_uint256",
        "label": "mapping(uint256 => address)",
        "numberOfBytes": "32",
        "value": "t_address"
      },
      "t_string_storage": {
        "encoding": "bytes",
        "label": "string",
        "numberOfBytes": "32"
      },
      "t_uint256": {
        "encoding": "inplace",
        "label": "uint256",
        "numberOfBytes": "32"
      }
    }
  }
}